:020000040800F2
:100000007848002061020008F9300008252D00081A
:10001000F530000825060008293D00080000000012
:10002000000000000000000000000000C9010008FE
:100030009D060008000000000D0200086135000860
:100040007B0200087B0200087B0200087B0200089C
:100050007B0200087B0200087B0200087B0200088C
:100060007B0200087B0200087B0200087B0200087C
:100070007B0200087B0200087B0200086106000882
:100080007B0200087B0200087B0200087B0200085C
:100090007B0200087B0200087B0200089F06000824
:1000A0007B0200087B0200087B0200087B0200083C
:1000B0007B0200081D3600087B0200087B02000856
:1000C0007B0200087B0200087B0200087B0200081C
:1000D0007B0200086D3C00087B0200087B020008E0
:1000E0007B0200087B0200087B02000800F002F897
:1000F00000F05AF80AA090E8000C82448344AAF168
:100100000107DA4501D100F04FF8AFF2090EBAE865
:100110000F0013F0010F18BFFB1A43F0010318473B
:10012000C0730000E07300000A444FF0000C10F8A8
:10013000013B13F0070408BF10F8014B1D1108BF65
:1001400010F8015B641E05D010F8016B641E01F805
:10015000016BF9D113F0080F1EBF10F8014BAD1C55
:100160000C1B09D16D1E58BF01F801CBFAD505E073
:1001700014F8016B01F8016B6D1EF9D59142D6D3CD
:10018000704700000023002400250026103A28BFF5
:1001900078C1FBD8520728BF30C148BF0B607047F9
:1001A0001FB51FBD10B510BD00F045F91146FFF792
:1001B000F7FF03F0BBFE00F063F903B4FFF7F2FFB3
:1001C00003BC00F06BF90000224B19680868B0E826
:1001D000F00F80F30988BFF36F8F4FF0000080F3BA
:1001E00011884EF00D0E70470000000006480068B0
:1001F000006880F3088862B661B6BFF34F8FBFF323
:100200006F8F00DF00BF00BF08ED00E0EFF3098053
:10021000BFF36F8F0F4B1A6820E9F00F106008B51D
:100220004FF0500080F31188BFF34F8FBFF36F8FF3
:1002300005F012F94FF0000080F31188BDE8084086
:1002400019680868B0E8F00F80F30988BFF36F8F72
:10025000704700BF14000020EFF3058070470000D6
:100260000948804709480047FEE7FEE7FEE7FEE74A
:10027000FEE7FEE7FEE7FEE7FEE7FEE70448054986
:10028000054A064B7047000019360008ED000008CB
:1002900078420020784800207844002078440020EC
:1002A000032A40F2308010F0030C00F0158011F8A2
:1002B000013BBCF1020F624498BF11F801CB00F87A
:1002C000013B38BF11F8013BA2F1040298BF00F8CE
:1002D00001CB38BF00F8013B11F0030300F025808B
:1002E000083AC0F0088051F8043B083A51F804CBB2
:1002F000A0E80810F5E7121D5CBF51F8043B40F878
:10030000043BAFF30080D20724BF11F8013B11F882
:1003100001CB48BF11F8012B24BF00F8013B00F8C6
:1003200001CB48BF00F8012B704710B5203AC0F050
:100330000B80B1E81850203AA0E81850B1E81850E6
:10034000A0E81850BFF4F5AF5FEA027C24BFB1E823
:100350001850A0E8185044BF18C918C0BDE8104094
:100360005FEA827C24BF51F8043B40F8043B08BF9D
:100370007047D20728BF31F8023B48BF11F8012B64
:1003800028BF20F8023B48BF00F8012B704702F05D
:10039000FF0343EA032242EA024200F02CB84FF086
:1003A000000200B5134694469646203922BFA0E8C5
:1003B0000C50A0E80C50B1F12001BFF4F7AF0907D1
:1003C00028BFA0E80C5048BF0CC05DF804EB8900C2
:1003D00028BF40F8042B08BF704748BF20F8022B05
:1003E00011F0804F18BF00F8012B7047704770471D
:1003F00070474FF000020429C0F0128010F0030C87
:100400003FF4CFAFCCF1040CBCF1020F18BF00F8E1
:10041000012BA8BF20F8022BA1EB0C01FFF7C1BFF5
:100420005FEAC17C24BF00F8012B00F8012B48BF14
:1004300000F8012B7047754600F02CF8AE46050019
:100440006946534620F00700854618B020B5FFF7EF
:1004500015FFBDE820404FF000064FF000074FF0B9
:1004600000084FF0000B21F00701AC46ACE8C009D2
:10047000ACE8C009ACE8C009ACE8C0098D467047DB
:1004800010B50446AFF300802046BDE81040FFF7EA
:1004900094BE000000487047144200200149182013
:1004A000ABBEFEE726000200704770B5044600258B
:1004B0002068806800F0010018B32068806820F090
:1004C00001002168886001F0F3F8054613E001F0AF
:1004D000EFF8401B02280ED92068806800F0010068
:1004E00048B1A06A40F01000A062E06A40F001004C
:1004F000E062012070BD2068806800F001000028E3
:10050000E5D10020F6E7000038B5044600250020BC
:1005100000902068806800F0010078BB2068806847
:1005200040F0010021688860194800681949B0FB53
:10053000F1F0009002E00098401E00900098002822
:10054000F9D101F0B5F8054619E001F0B1F8401B0A
:10055000022814D92068806800F0010078B9A06AE8
:1005600040F01000A062E06A40F00100E06200BFCD
:10057000002084F8240000BF012038BD05E0206879
:10058000806800F001000028DFD00020F5E70000BF
:100590001000002040420F0008B500200CE00021B0
:1005A0000B4A02EBC0025180094A22F83010094977
:1005B00002EBC0025160401C0628F0DB40202023E3
:1005C00000220549009005A003F052FD08BD00007F
:1005D000D8410020CDCC4C3FD53D000841444300DC
:1005E0002DE9F05F04460D4600220B4B20462946BC
:1005F00006F036F8804600224FF0804306F0C4F93A
:1006000006460022054B05F077FF82460022044B88
:1006100006F026F8BDE8F09F008066400000E03F4D
:100620000000344000BFFEE710B500F007F802F00C
:1006300065FDFFF7B1FF02F039FE10BD08B540209F
:10064000202300220349009003A003F011FD034979
:10065000086008BDE9320008524300009000002005
:1006600010B5024800F01AFD10BD00006C02002019
:1006700030B590F840500124AC40C56B6C60046804
:1006800063604468102C04D10468A2600468E160CF
:1006900003E00468A1600468E26030BD704710B5F3
:1006A000402000F061FE4FF4007000F05DFE10BDD0
:1006B00072B600BFFEE700006421754802F0C6FD77
:1006C00064217348143002F0C1FD64217048283061
:1006D00002F0BCFD64216E483C3002F0B7FD64219D
:1006E0006C4802F0B3FD64216A48143002F0AEFD9C
:1006F00000BF00BFCBE06849486806F063FB0446D2
:10070000664A674B06F03EFA20D24FF07E516048B1
:100710003C3002F073FD00224FF48041614800F04C
:10072000C1FF012251025F4800F0BCFF002280217E
:100730005D4800F0B7FF4FF07E51564802F05EFD75
:100740004FF07E515348143002F058FD524948682A
:1007500006F038FB0446514A544B06F0D9F820D233
:1007600000214B483C3002F049FD012291034D48E5
:1007700000F098FF00224FF400714A4800F092FF09
:1007800001228021484800F08DFF4FF07E51414802
:1007900002F034FD4FF07E513E48143002F02EFD41
:1007A00075E03D49086806F00DFB04463B4A3C4BAA
:1007B00006F0E8F921D24FF07E5135483C3002F086
:1007C0001DFD00224FF48041364800F06BFF0022EF
:1007D0004FF40071334800F065FF01228021324858
:1007E00000F060FF4FF07E512A4802F007FD4FF005
:1007F0007E512848143002F001FD2749086806F0B0
:10080000E1FA0446254A294B06F082F81FD200215E
:100810001F483C3002F0F2FC01229103214800F015
:1008200041FF012251021F4800F03CFF00228021BD
:100830001D4800F037FF4FF07E51164802F0DEFCF5
:100840004FF07E511348143002F0D8FC1FE04FF0F7
:100850007E510F483C3002F0D1FC01229103114837
:1008600000F020FF012251020E4800F01BFF012280
:1008700080210D4800F016FF4FF07E51054802F030
:10088000BDFC4FF07E510348143002F0B7FC32E754
:10089000AC00002010010020CC1B00209A999999EF
:1008A0009999C93F000C0140000801409999C9BFBE
:1008B000F8B5044600260020009000BF94F82400FC
:1008C000012801D10220F8BD012084F8240000BFD6
:1008D0002046FFF7EAFD0646002E6CD1A06A20F400
:1008E000885040F00200A062022000F0F3FF35497A
:1008F0000968B1FBF0F04000009002E00098401E53
:10090000009000980028F9D12046FFF7FDFD2068EF
:10091000806840F008002168886000F0C9FE054644
:1009200016E000F0C5FE401B0A2811D92068806837
:1009300000F0080060B1A06A20F0020040F0100052
:10094000A06200BF002084F8240000BF0120BAE7A5
:100950002068806800F008000028E2D120688068E4
:1009600040F004002168886000F0A2FE054616E011
:1009700000F09EFE401B0A2811D92068806800F014
:10098000040060B1A06A20F0020040F01000A062F4
:1009900000BF002084F8240000BF012093E72068F6
:1009A000806800F004000028E2D1A06A20F0020074
:1009B00040F00100A06200BF002084F8240000BFC6
:1009C000304680E71000002038B5024600230020A2
:1009D000009000BF92F82400012801D1022038BD08
:1009E000012082F8240000BF4868072812D210684E
:1009F000406B0C79641E04EB84051F24AC40A043BB
:100A00000D796D1E05EB85050C68AC40204314681C
:100A1000606327E048680D2812D21068006B0C79DB
:100A2000E41F04EB84051F24AC40A0430D79ED1FA7
:100A300005EB85050C68AC4020431468206311E089
:100A40001068C06A0C790D3C04EB84051F24AC408F
:100A5000A0430D790D3D05EB85050C68AC402043A6
:100A60001468E06208680A2812D31068C0680C781D
:100A70000A3C04EB44050724AC40A0430D780A3D32
:100A800005EB45058C68AC4020431468E0600FE03E
:100A9000106800690C7804EB44050724AC40A043BF
:100AA0000D7805EB45058C68AC4020431468206147
:100AB0000868102802D00868112827D1174C106840
:100AC000A0421ED11068806800F40000F0B91068E0
:100AD000806840F400001468A0600868102815D1F0
:100AE0000F4800680F4CB0FBF4F000EB80004000B2
:100AF000009002E00098401E009000980028F9D174
:100B000004E0906A40F020009062012300BF0020C2
:100B100082F8240000BF184661E70000002401406D
:100B20001000002040420F0001460868C06C70476A
:100B30002DE9F0410446002700250026A84614B9F7
:100B40000120BDE8F081A06810B1207D00B100BF98
:100B5000A06A30B90020E06284F82400204600F04A
:100B600089F82046FFF7A1FC0746A06A00F01000B4
:100B7000002873D1002F71D1A06A20F4885040F072
:100B80000200A062E16960680843217B40EA4100FD
:100B90000643A068B0F5807F02D0A068012802D18A
:100BA0004FF4807000E000200543207D012811D122
:100BB000207B38B9A069401E4FF4006141EA403003
:100BC000054307E0A06A40F02000A062E06A40F020
:100BD0000100E0622068406820F4694028432168F1
:100BE0004860206880682149084030432168886057
:100BF000A068B0F5807F02D0A068012802D14FF430
:100C0000807000E00020B0F5807F03D1208A401E74
:100C10004FEA00582068C06A20F4700040EA0800DB
:100C20002168C8622068806811490840B04208D134
:100C30000020E062A06A20F0020040F00100A06203
:100C400011E0A06A20F0020040F01000A062E06A0B
:100C500040F00100E062012705E0FFE7A06A40F0F4
:100C60001000A062012738466BE70000FDF7E1FFA6
:100C7000FE0E1FFF10B586B00446002002900390C0
:100C80000490059014492068884222D100BF13487F
:100C9000806940F40070114988610846806900F459
:100CA0000070019000BF00BF00BF0846806940F09F
:100CB000040088610846806900F00400019000BFCC
:100CC00000BF2F2002900320039002A9044800F0E7
:100CD00059FB06B010BD0000002401400010024086
:100CE00000080140F8B504460D460026002000909B
:100CF000002700F0DDFC06462068806800F4807064
:100D000050B1A06A40F02000A06200BF002084F82B
:100D1000240000BF0120F8BD2068406800F4807006
:100D200020BB2068C06A00F47000F8B917E0681CA6
:100D3000A8B125B100F0BCFC801BA8420FD92068E7
:100D4000006800F0020050B9A06A40F00400A06200
:100D500000BF002084F8240000BF0320DBE72068E8
:100D6000006800F002000028E1D053E0022000F00B
:100D7000B1FD38490968B1FBF0F021680969364ACC
:100D8000114091B92168C9689211114069B921686F
:100D90000969324A114031B92168C968921111407C
:100DA00009B9142117E0292115E0216809692B4AA6
:100DB000114021B92168C9689211114041B12168DF
:100DC0000969274A114029B92168C968114009B940
:100DD000542100E0FC2100FB01F718E0681C98B1E9
:100DE00025B100F065FC801BA8420DD90098B842DF
:100DF0000AD2A06A40F00400A06200BF002084F87C
:100E0000240000BF032086E70098401C0090009853
:100E1000B842E3D36FF0120021680860A06A40F482
:100E20000070A0622068806800F46020B0F5602F38
:100E30000DD1207B58B9A06A20F48070A062A06A0E
:100E400000F4805018B9A06A40F00100A0620020B0
:100E500061E70000100000202449922492244912E6
:100E60004992240070B50446002500BF94F8240080
:100E7000012801D1022070BD012084F8240000BFA8
:100E80002046FFF741FB0546002D77D1A06A40F2CE
:100E90000121884340F48070A0623C492068884268
:100EA00008D13B48006800F4702008B9012002E036
:100EB000002000E0012078B1A06A20F48010A06238
:100EC0002068406800F4806000B3A06A20F40050FD
:100ED00040F48050A06219E0A06A40F48010A06243
:100EE0002B49091F2068884203D02849206888427E
:100EF00004D12748006800F4806000E0002028B199
:100F0000A06A20F4005040F48050A062A06A00F46F
:100F1000805020B1E06A20F00600E06201E000208D
:100F2000E06200BF002084F8240000BFC01E2168DA
:100F300008602068806800F46020B0F5602F16D14A
:100F400012492068884208D11148006800F47020D6
:100F500008B9012002E0002000E0012038B120683B
:100F6000806840F4A000216888600CE006E02068FA
:100F7000806840F480102168886004E000BF002091
:100F800084F8240000BF284675E7000000280140CF
:100F9000042401400146002291F82100022808D0D3
:100FA0000420886300BF002081F8200000BF0120DA
:100FB00070470868006820F00E000B681860086829
:100FC000006820F001000B68186091F840300120A3
:100FD0009840CB6B5860012081F8210000BF0020B1
:100FE00081F8200000BF1046E2E7000070B504461B
:100FF000002594F82100022803D00420A0630125D5
:1010000048E02068006820F00E0021680860206831
:10101000006820F00100216808601F4920688842AC
:1010200001D1012026E01C4914312068884201D1F9
:1010300010201FE0184928312068884201D180150E
:1010400018E015493C312068884201D1801411E034
:10105000114950312068884202D14FF4803009E0B4
:101060000D4964312068884202D14FF4801001E0BC
:101070004FF08070084908394860012084F8210049
:1010800000BF002084F8200000BF606B10B1204634
:10109000616B8847284670BD0800024070B5044661
:1010A000E06B05682068066894F8401004208840CA
:1010B0002840002846D006F00400002842D02068CE
:1010C000006800F0200028B92068006820F00400C3
:1010D0002168086057492068884201D1042027E030
:1010E000544914312068884201D1402020E0514900
:1010F00028312068884201D1001519E04D493C3162
:101100002068884202D14FF4804011E049495031B3
:101110002068884202D14FF4802009E045496431BB
:101120002068884202D14FF4800001E04FF08060D7
:10113000404908394860E06A00287AD02046E16AD0
:10114000884776E094F84010022088402840A0B3F9
:1011500006F0020088B32068006800F0200040B963
:101160002068006820F00A0021680860012084F8E7
:10117000210030492068884201D1022028E02D4911
:1011800014312068884201D1202021E029492831EA
:101190002068884201D140151AE026493C31206878
:1011A000884202D14FF4005012E0224950312068A9
:1011B000884203D14FF400300AE017E01D49643142
:1011C0002068884202D14FF4001001E04FF0007017
:1011D00018490839486000BF002084F8200000BF8B
:1011E000A06A30B32046A16A884722E094F84010F4
:1011F000082088402840E0B106F00800C8B1206807
:10120000006820F00E002168086094F8401001206A
:101210008840E16B48600120A06384F8210000BF92
:10122000002084F8200000BF206B10B12046216B05
:10123000884770BD080002400146002209B901201C
:101240007047164B0868C01A1423B0FBF3F08000F7
:10125000086412480838C863022081F82100086831
:10126000026843F6F0708243D1E901031843CB686A
:1012700018430B6918434B6918438B691843CB69B2
:10128000184302430868026000208863012081F847
:101290002100002081F8200000BFD1E708000240B3
:1012A0002DE9F04104460D4616461F464FF0000852
:1012B00000BF94F82000012802D10220BDE8F0818F
:1012C000012084F8200000BF94F8210001282CD1CF
:1012D000022084F821000020A0632068006820F02C
:1012E0000100216808603B46324629462046FFF748
:1012F000BFF9E06A30B12068006840F00E00216854
:1013000008600BE02068006820F004002168086095
:101310002068006840F00A002168086020680068C2
:1013200040F001002168086006E000BF002084F85A
:10133000200000BF4FF002084046BFE770B50446EA
:1013400000F0B6F906462546681C10B1044800783E
:10135000054400BF00F0ACF9801BA842FAD370BD71
:101360000C0000207047000010B5044604480068D7
:10137000204020B1024804602046FFF7F3FF10BD73
:10138000140401402DE9F8470346002294466EE11B
:101390004FF0010808FA02F4D1F8008008EA0400CE
:1013A000A0427DD1DFF8DCA2D1F80480A8EB0A09C5
:1013B000D0453AD014DCB8F1030F50D009DCB8F1B5
:1013C000000F31D0B8F1010F1CD0B8F1020F49D194
:1013D00020E0B8F1110F18D0B8F1120F42D11EE081
:1013E000B9F5881F25D006DCB9F5803F20D0B9F5C6
:1013F000801F37D11AE0B9F5001F18D0B9F5041FC6
:1014000030D117E0D1F80CC02DE0D1F80C8008F1F4
:10141000040C28E0D1F80C8008F1080C23E0D1F886
:101420000C8008F10C0C1EE000BF00BF00BF00BF25
:1014300000BF00BFD1F80880B8F1000F02D14FF013
:10144000040C0BE0D1F80880B8F1010F03D14FF084
:10145000080C1C6102E04FF0080C5C6103E04FF0E7
:10146000000C00E000BF00BFFF2801D8984601E053
:1014700003F104084646FF2802D84FEA820803E039
:10148000A2F108084FEA88084746D6F800804FF0D6
:101490000F0909FA07F928EA09080CFA07F900E028
:1014A00088E048EA0908C6F80080D1F8048008F00E
:1014B0008058B8F1805F7DD100BFDFF8CC81D8F8CB
:1014C000188048F00108DFF8C091C9F81880C846B4
:1014D000D8F8188008F00108CDF8008000BF00BFE0
:1014E0004FEAB9384FEA920958F829504FEA827802
:1014F0004FEA18794FF00F0808FA09F825EA0805AD
:10150000DFF88881434502D14FF0000816E0DFF88C
:101510008081434502D14FF001080FE0DFF874816C
:10152000434502D14FF0020808E0DFF86C814345E3
:1015300002D14FF0030801E04FF004084FEA82792E
:101540004FEA197908FA09F848EA0505DFF84C81ED
:101550004FEA920948F82950D1F8048008F48038FD
:10156000B8F5803F0AD1DFF83881D8F8008048EA22
:101570000008DFF82C91C9F8008009E0DFF820812D
:10158000D8F8008028EA0008DFF81491C9F8008034
:10159000D1F8048008F40038B8F5003F10D1DFF826
:1015A000008108F10408D8F8008048EA0008DFF854
:1015B000F09000E05AE009F10409C9F800800DE05C
:1015C000DFF8DC8008F10408D8F8008028EA000879
:1015D000DFF8CC9009F10409C9F80080D1F8048043
:1015E00008F48018B8F5801F0ED1DFF8B48008F138
:1015F0000808D8F8008048EA0008DFF8A49009F14C
:101600000809C9F800800DE0DFF8948008F10808A7
:10161000D8F8008028EA0008DFF8849009F108096A
:10162000C9F80080D1F8048008F40018B8F5001F4C
:101630000ED1DFF86C8008F10C08D8F8008048EA79
:101640000008DFF85C9009F10C09C9F800800DE092
:10165000DFF84C8008F10C08D8F8008028EA000870
:10166000DFF83C9009F10C09C9F80080521CD1F850
:10167000008028FA02F8B8F1000F7FF489AEBDE8C7
:10168000F88700000000111000100240000801401F
:10169000000C01400010014000140140080001400E
:1016A000000401400AB1016101E00B0403617047CD
:1016B00001480068704700000400002003480068EB
:1016C0000349097808440149086070470400002074
:1016D0000C00002010B50848006840F010000649D2
:1016E0000860032000F0E2F80F2000F007F800F097
:1016F0005FF8002010BD0000002002402DE9F041FD
:1017000088B004460027B846002600BF2348C069B9
:1017100040F002002149C8610846C06900F002009B
:10172000019000BF00BF02A903A800F0BDFA069F08
:101730001FB900F0E1FA054602E000F0DDFA4500CD
:101740001748B5FBF0F0A0F10108164816490860EB
:1017500040F2E7311448C160C0F804800021016103
:101760008160816100F0E2FD064696B90E4800F006
:1017700011FE06466EB91D2000F04AF8102C07D263
:10178000002221461D2000F053F80848046000E0C4
:101790000126304608B0BDE8F0810000001002408C
:1017A00040420F0000040040B0020020080000206A
:1017B00008B500BF1448806940F0010012498861F3
:1017C0000846806900F00100009000BF00BF00BF24
:1017D0000846C06940F08050C8610846C06900F002
:1017E0008050009000BF00BF00220F21901E00F02B
:1017F0001FF800BF0549486820F0E06040F0007025
:10180000486000BF08BD0000001002400000014019
:1018100001460846002809DB00F01F0301229A4018
:1018200043099B0003F1E023C3F8002100BF704788
:101830002DE9F05F80460D461646002702F0A4FA17
:10184000074639462A46334601F00700C0F1070A29
:10185000BAF1040F02D94FF0040A01E0C0F1070AFF
:10186000D14600F1040ABAF1070F02D24FF0000A84
:1018700001E0A0F1030AD4464FF0010A0AFA09FA7E
:10188000AAF1010A0AEA020A0AFA0CFA4FF0010B5D
:101890000BFA0CFBABF1010B0BEA030B4AEA0B044E
:1018A0002146404602F078FABDE8F09F00BF00F004
:1018B0000702064B19684FF6FF031940044B0B4310
:1018C00043EA0221014B196000BF70470CED00E0B4
:1018D0000000FA052DE9F04385B006463BA30FCB87
:1018E00001AC0FC43DA0006800904FF00008002537
:1018F00000270024A146012E30D0022E55D0102EF4
:101900005ED137484468006800F0807000B301A8D9
:10191000C4F38341475C04F4803070B130484068C0
:10192000C0F340401DF8008004F4803040B12D48E1
:10193000B0FBF8F000FB07F502E02B4807FB00F5D1
:101940002748406800F48000B0F5800F01D1A94617
:1019500003E068000321B0FBF1F932E02048046A9B
:1019600004F44070B0F5807F05D104F0020010B19E
:101970004FF4004918E004F44070B0F5007F07D13F
:101980001748406A00F0020010B149F640490BE0E8
:1019900004F44070B0F5407F06D11148006800F4AF
:1019A000003008B14FF224490BE000F0B5F90C49C2
:1019B0004968C1F38131491C4900B0FBF1F900E0ED
:1019C00000BF00BF484605B0BDE8F0830203040530
:1019D000060708090A0B0C0D0E0F1010010200007B
:1019E0000010024000127A0000093D00F8B50446DC
:1019F00000260025207800F0010000286BD0002789
:101A00004348C06900F0805070B900BF4048C069C9
:101A100040F080503E49C8610846C06900F08050DF
:101A2000009000BF00BF01273A48006800F48070B2
:101A3000B0B93848006840F4807036490860FFF754
:101A400037FE064606E0FFF733FE801B642801D907
:101A50000320F8BD2F48006800F480700028F2D001
:101A60002B48006A00F440752DB3A08800F4407044
:101A7000A84220D02648006A20F44075012026495B
:101A80000860002008602248056205F0010090B15E
:101A9000FFF70EFE064608E0FFF70AFE801B41F244
:101AA0008831884201D90320D3E71948006A00F041
:101AB00002000028F0D01648006A20F440706168E7
:101AC000084313490862012F04D10846C06920F079
:101AD0008050C86100BF207800F00200022807D1C2
:101AE0000B48406820F44040A1680843084948601A
:101AF000207800F01000102807D10548406820F435
:101B00008000E1680843024948600020A1E7000026
:101B100000100240007000404004424270B504468C
:101B20000D460CB9012070BD5A48006800F007004E
:101B3000A8420ED25748006820F0070028435549B4
:101B400008600846006800F00700A84201D00120A4
:101B5000E9E7207800F0020002281DD1207800F08B
:101B60000400042805D14C48406840F4E0604A492C
:101B70004860207800F00800082805D146484068F1
:101B800040F46050444948604348406820F0F00009
:101B9000A168084340494860207800F0010078B30C
:101BA0006068012806D13C48006800F4003090B914
:101BB0000120B8E76068022806D13748006800F0C5
:101BC000007040B90120AEE73348006800F0020021
:101BD00008B90120A7E73048406820F00300616899
:101BE00008432D494860FFF763FD064609E0FFF70B
:101BF0005FFD801B41F28831884202D9032092E7C1
:101C000007E02548406800F00C006168B0EB810FE8
:101C1000EDD12048006800F00700A8420ED91D4809
:101C2000006820F0070028431A4908600846006849
:101C300000F00700A84201D0012074E7207800F0EE
:101C40000400042807D11448406820F4E060E168EB
:101C5000084311494860207800F00800082808D19E
:101C60000D48406820F46050216940EAC1000A49EB
:101C7000486000F061F808494968C1F30311074A58
:101C8000515CC8400649086006480068FFF736FD09
:101C9000002048E70020024000100240887400083D
:101CA00010000020080000200F2202600D4A526838
:101CB00002F0030242600B4A526802F0F0028260B6
:101CC000084A526802F4E062C260064A526802F4AE
:101CD0006052D2080261044A126802F007020A60E8
:101CE00070470000001002400020024001480068D8
:101CF000704700001000002000B5FFF7F7FF04490F
:101D00004968C1F30221034A515CC84000BD00008C
:101D1000001002409874000800B5FFF7E7FF04497F
:101D20004968C1F3C221034A515CC84000BD0000AC
:101D30000010024098740008F0B585B00FF26C0CEA
:101D40009CE8E01001A8A0E8E0101CA52D68009513
:101D500000210022002300240020194D696801F0B1
:101D60000C05F5B1042D02D0082D19D101E015485C
:101D700019E001ADC1F38346AC5D01F4803555B186
:101D80000F4D6D68C5F340451DF805200D4D6543A9
:101D9000B5FBF2F302E00C4D04FB05F3184602E03C
:101DA00000BF084800BF00BF05B0F0BD0203040536
:101DB000060708090A0B0C0D0E0F10100102000097
:101DC0000010024000127A0000093D00F8B50446F8
:101DD0000CB90120F8BD207800F00100002878D06F
:101DE000F848406800F00C0004280CD0F548406822
:101DF00000F00C00082811D1F248406800F480304F
:101E0000B0F5803F0AD1EF48006800F400300028A8
:101E10005FD0606800285CD10120DBE700BF60680C
:101E2000B0F5803F06D1E748006840F48030E549CE
:101E3000086028E0606858B9E248006820F4803003
:101E4000E04908600846006820F4802008601AE035
:101E50006068B0F5A02F0BD1DA48006840F480200C
:101E6000D84908600846006840F4803008600AE0FD
:101E7000D448006820F48030D249086008460068E1
:101E800020F48020086000BF606888B1FFF710FC74
:101E9000054606E0FFF70CFC401B642801D903202F
:101EA00098E7C848006800F400300028F2D010E03D
:101EB000FFF7FEFB054606E0FFF7FAFB401B642830
:101EC00001D9032086E7BF48006800F400300028ED
:101ED000F2D1207800F00200022857D1B9484068BA
:101EE00000F00C0050B1B748406800F00C00082822
:101EF00018D1B448406800F4803098B9B1480068FF
:101F000000F0020020B12069012801D0012061E722
:101F1000AC48006820F0F800616940EAC100A949B6
:101F2000086033E02069E8B10120A7490860FFF7A5
:101F3000BFFB054606E0FFF7BBFB401B022801D9AB
:101F4000032047E79F48006800F002000028F2D015
:101F50009C48006820F0F800616940EAC100994996
:101F6000086013E0002098490860FFF7A1FB0546D0
:101F700006E0FFF79DFB401B022801D9032029E75B
:101F80009048006800F002000028F2D1207800F0AC
:101F9000080008282DD1A069B8B101208B4908603C
:101FA000FFF786FB054606E0FFF782FB401B022891
:101FB00001D903200EE78348406A00F002000028A0
:101FC000F2D0012001F07CF913E000207F49086085
:101FD000FFF76EFB054606E0FFF76AFB401B022891
:101FE00001D90320F6E67748406A00F00200002895
:101FF000F2D1207800F00400042873D10027714842
:10200000C06900F0805070B900BF6E48C06940F0F0
:1020100080506C49C8610846C06900F0805000904B
:1020200000BF00BF01276A48006800F48070B0B9A3
:102030006748006840F4807065490860FFF738FB26
:10204000054606E0FFF734FB401B642801D9032056
:10205000C0E65F48006800F480700028F2D000BF3E
:10206000E068012806D15748006A40F00100554950
:10207000086227E0E06858B95248006A20F0010081
:10208000504908620846006A20F00400086219E01E
:10209000E06805280BD14B48006A40F0040049492C
:1020A00008620846006A40F0010008620AE04548FC
:1020B000006A20F00100434908620846006A20F0E7
:1020C0000400086200BFE068A0B1FFF7F1FA05461E
:1020D00009E0FFF7EDFA401B41F28831884202D94E
:1020E000032077E622E03748006A00F0020000286B
:1020F000EFD012E0FFF7DCFA054608E0FFF7D8FA68
:10210000401B41F28831884201D9032062E62D4804
:10211000006A00F002000028F0D1012F05D1294803
:10212000C06920F080502749C86100BFE069C8B38A
:102130002448406800F00C00082860D0E0690228BC
:1021400048D1002020490866FFF7B2FA054606E0AC
:10215000FFF7AEFA401B022801D903203AE61948DE
:10216000006800F000700028F2D1206AB0F5803FCE
:1021700007D11448406820F40030A1680843114991
:102180004860D4E9080108430E49496821F47411F4
:1021900008430C49486001200B490866FFF788FA9C
:1021A000054607E03DE0FFF783FA401B022801D90E
:1021B00003200FE60348006800F000700028F2D00A
:1021C0002FE0000000100240000042428004424222
:1021D00000700040002014490866FFF769FA0546C0
:1021E00006E0FFF765FA401B022801D90320F1E55C
:1021F0000E48006800F000700028F2D111E0E0699C
:10220000012800D1E6E50948466806F48031206AD5
:10221000814204D106F47011606A814201D001202C
:10222000D8E50020D6E50000000042420010024040
:102230007047704710B50346002200BF93F83C007A
:10224000012801D1022010BD012083F83C0000BF0D
:1022500022F0FF00CC6840EA040222F440708C684F
:1022600040EA040222F480604C6840EA040222F44E
:1022700000600C6840EA040222F480500C6940EAD5
:10228000040222F400504C6940EA040222F4804027
:10229000CC6940EA04021868426400BF002083F859
:1022A0003C0000BF00BFCEE730B502460B4600BF82
:1022B00092F83C00012801D1022030BD012082F8B3
:1022C0003C0000BF022082F83D001068446810689E
:1022D000816824F070041868044310684460104D4D
:1022E0001068A8420BD01068B0F1804F07D00D4D98
:1022F0001068A84203D00C4D1068A84205D121F007
:1023000080015868014310688160012082F83D0017
:1023100000BF002082F83C0000BF00BFCDE70000F6
:10232000002C0140000400400008004010B50446A5
:102330000CB9012010BD94F83D0028B9002084F8A4
:102340003C00204600F025F8022084F83D00211DC5
:10235000206801F06BF9012084F8460000BF84F882
:102360003E0001213F2001554020015541200155EB
:1023700000BF00BF012084F84200432001554420E3
:1023800001554520015500BF012084F83D00002083
:10239000D0E77047014691F83D00012801D00120A7
:1023A0007047022081F83D000868C06840F00100D5
:1023B0000B68D860124B086898420BD00868B0F1DF
:1023C000804F07D00F4B0868984203D00E4B086827
:1023D00098420CD10868806800F00702062A0CD0E9
:1023E0000868006840F001000B68186005E00868A4
:1023F000006840F001000B6818600020D0E7000082
:10240000002C01400004004000080040704710B557
:10241000044620680069C0F34000D8B12068C06855
:10242000C0F34000B0B16FF00200216808610120E4
:1024300020772068806900F0030018B12046FFF77C
:10244000E5FF05E0204600F01DF9204600F0F6F912
:102450000020207720680069C0F38000D8B1206890
:10246000C068C0F38000B0B16FF00400216808615B
:10247000022020772068806900F4407018B120465F
:10248000FFF7C4FF05E0204600F0FCF8204600F00E
:10249000D5F90020207720680069C0F3C000D8B1CA
:1024A0002068C068C0F3C000B0B16FF008002168B8
:1024B0000861042020772068C06900F0030018B18B
:1024C0002046FFF7A3FF05E0204600F0DBF820469A
:1024D00000F0B4F90020207720680069C0F30010F4
:1024E000D8B12068C068C0F30010B0B16FF0100020
:1024F00021680861082020772068C06900F44070D6
:1025000018B12046FFF782FF05E0204600F0BAF838
:10251000204600F093F9002020772068006900F041
:10252000010058B12068C06800F0010030B16FF0C0
:10253000010021680861204600F0ECF9206800697C
:10254000C0F3C01058B12068C068C0F3C01030B1EB
:102550006FF08000216808612046FFF769FE20685F
:102560000069C0F3801058B12068C068C0F38010C3
:1025700030B16FF0400021680861204600F0D6F9C4
:1025800020680069C0F3401058B12068C068C0F3EB
:10259000401030B16FF02000216808612046FFF73D
:1025A00048FE10BD10B586B004460020029003908E
:1025B000049005902E492068884218D100BF2D480C
:1025C000806940F004002B4988610846806900F06A
:1025D0000400019000BF00BF4FF470600290022021
:1025E0000390059002A92448FEF7CCFE3DE0206848
:1025F000B0F1804F39D100BF1E48806940F008001B
:102600001C4988610846806900F00800019000BFFD
:1026100000BF00BF0846806940F00400886108469A
:10262000806900F00400019000BF00BF40F6084040
:10263000029002200390059002A91048FEF7A2FE26
:102640004FF40040029002200390059002A90A482E
:10265000FEF798FE00BF0A49486820F4407040F039
:10266000E06040F44070486000BF06B010BD00005C
:10267000002C01400010024000080140000C014005
:1026800000000140704770B504460D46164600BF75
:1026900094F83C00012801D1022070BD012084F88B
:1026A0003C0000BF36B1042E1BD0082E31D00C2EBA
:1026B0005ED145E02946206801F004F82068806971
:1026C00040F00800216888612068806920F00400DB
:1026D00021688861206880692969084321688861C8
:1026E00047E02946206801F01DF82068806940F421
:1026F0000060216888612068806920F4806021681A
:10270000886120688069296940EA01202168886120
:102710002FE02946206801F039F82068C06940F0B0
:1027200008002168C8612068C06920F004002168A1
:10273000C8612068C069296908432168C86118E038
:102740002946206801F056F82068C06940F400600E
:102750002168C8612068C06920F480602168C86170
:102760002068C069296940EA01202168C86100E049
:1027700000BF00BF00BF002084F83C0000BF00BFC6
:102780008BE710B504460CB9012010BD94F83D004C
:1027900028B9002084F83C00204600F025F80220EB
:1027A00084F83D00211D206800F040FF012084F8DE
:1027B000460000BF84F83E0001213F200155402023
:1027C00001554120015500BF00BF012084F842009F
:1027D00043200155442001554520015500BF0120EB
:1027E00084F83D000020D0E708B5124A0168914204
:1027F0000DD100BF1049896941F400610E4A916111
:102800001146896901F40061009100BF11E001687F
:10281000B1F1804F0DD100BF0749C96941F00101F5
:10282000054AD1611146C96901F00101009100BF5B
:1028300000BF08BD002C014000100240704700009E
:1028400070B504460D4615B994F83E000BE0042D12
:1028500002D13F20005D06E0082D02D14020005D3E
:1028600001E04120005D012801D0012070BD1DB9AB
:10287000022084F83E000EE0042D03D102213F2007
:10288000015508E0082D03D102214020015502E046
:1028900002214120015501222946206800F000FF55
:1028A00019492068884201D1012000E0002028B1A8
:1028B0002068406C40F40040216848641249206858
:1028C00088420BD02068B0F1804F07D00F492068B4
:1028D000884203D00E49206888420CD12068806865
:1028E00000F00706062E0CD02068006840F00100BA
:1028F0002168086005E02068006840F00100216858
:1029000008600020B2E70000002C014000040040F5
:102910000008004010B5044603492068884201D1F0
:10292000FEF7CCFE10BD0000000400407047704769
:10293000704700002DE9F84F0446206805682068BC
:10294000C668206847694FF00009CA4605F00F09BC
:10295000B9F1000F0AD105F0200038B106F02000CF
:1029600020B1204601F015F8BDE8F88FB9F1000F4D
:1029700071D007F0010018B906F4907000286AD0F1
:1029800005F0010030B106F4807018B1206C40F001
:102990000100206405F0040030B107F0010018B117
:1029A000206C40F00200206405F0020030B107F016
:1029B000010018B1206C40F00400206405F008000C
:1029C00048B106F0200010B907F0010018B1206CE2
:1029D00040F008002064206C68B305F0200028B1A6
:1029E00006F0200010B1204600F0D3FF20684069B7
:1029F000C0F3801A206C00F0080010B9BAF1000F83
:102A000022D0204600F090FF2068406900F040008E
:102A1000B0B12068406920F0400021684861A06B97
:102A200050B15648A16B4863A06BFEF7DFFA10B1B6
:102A3000A06B416B88470CE02046FFF779FF08E068
:102A40002046FFF775FF04E02046FFF771FF0020E6
:102A5000206489E7FFE7206B012878D105F010009A
:102A6000002874D006F01000002870D000BF0020AD
:102A7000009020680068009020684068009000BFC7
:102A800000BF2068406900F04000C0B3A06B006840
:102A900040681FFA80F8B8F1000F2FD0A08D404594
:102AA0002CDDA4F82E80A06B806920281FD0206820
:102AB000C06820F480702168C8602068406920F0F8
:102AC0000100216848612068406920F040002168C9
:102AD0004861202084F83E00002020632068C06800
:102AE00020F010002168C860A06BFEF753FAA08D9B
:102AF000E28D801A81B22046FFF719FF34E7FFE725
:102B0000A08DE18D401A1FFA80F8E08DE8B1B8F190
:102B1000000F1AD02068C06820F490702168C86047
:102B20002068406920F0010021684861202084F875
:102B30003E00002020632068C06820F0100021685B
:102B4000C86041462046FFF7F2FE0DE7FFE705F0BB
:102B5000800030B106F0800018B1204601F056F830
:102B600002E705F0400030B106F0400018B1204601
:102B700000F0F5FEF8E600BFF6E600003D3800087C
:102B800010B504460CB9012010BDA06900B100E0E9
:102B900000BF94F83D0028B9002084F83C0020468E
:102BA00000F028F8242084F83D002068C06820F454
:102BB00000502168C860204600F05EFF2068006970
:102BC00020F49040216808612068406920F02A00C4
:102BD000216848612068C06840F400502168C860DE
:102BE00000202064202084F83D0084F83E0000206E
:102BF000CAE7000010B586B004460020029003909A
:102C0000049005902F492068884259D100BF2E4872
:102C1000806940F480402C4988610846806900F44E
:102C20008040019000BF00BF00BF0846806940F0AF
:102C3000080088610846806900F00800019000BF24
:102C400000BF40200290022003900320059002A9BB
:102C50001E48FEF797FB802002900020039004900E
:102C600002A91A48FEF78EFB00BF1949486840F0D8
:102C7000E06040F00400486000BF16481649086054
:102C8000002048600021144881608021C16000213B
:102C90000161416181614FF44051C161FEF7CCFA9D
:102CA00008B1FDF705FD00BF0B48A063446200BFFB
:102CB000002205212520FEF7BBFD2520FEF7A8FDFB
:102CC00006B010BD0038014000100240000C014069
:102CD00000000140580002406C02002070B504461C
:102CE0000D46164694F83E00202816D105B10EB9BF
:102CF000012070BD00BF94F83C00012801D10220E2
:102D0000F7E7012084F83C0000BF00202063324632
:102D10002946204600F02EFFEBE70220E9E7704746
:102D20007047704700BFFEE76421104800F08EFA3C
:102D300064210E48143000F089FA64210B482830D1
:102D400000F084FA642109483C3000F07FFA6421E5
:102D5000074800F07BFA64210548143000F076FA49
:102D600002E0052001F0D0F8FBE70000AC000020F5
:102D7000100100200EB50020009001900290124832
:102D800012490860002111488160017301754FF4F8
:102D90006021C16100200D49486001210B4801619B
:102DA000FDF7C6FE08B1FDF783FC05200090012069
:102DB00001900020029069460448FDF705FE08B125
:102DC000FDF776FC0EBD00000024014068010020E4
:102DD00008B500BF0A48406940F001000849486151
:102DE0000846406900F00100009000BF00BF0022CB
:102DF00005210F20FEF71CFD0F20FEF709FD08BD81
:102E00000010024010B5054A0021054801F032FAD1
:102E10000449086000F08AFF10BD000064740008D7
:102E20004D3300080000002000B585B0002001905F
:102E300002900390049000BF3748806940F0200062
:102E4000354988610846806900F02000009000BF85
:102E500000BF00BF0846806940F004008861084652
:102E6000806900F00400009000BF00BF00BF08466A
:102E7000806940F0080088610846806900F0080019
:102E8000009000BF00BF00224FF484512348FEF79A
:102E900009FC00224FF441412148FEF703FC402089
:102EA000019001200290002003900220049001A9CB
:102EB0001A48FEF767FA4FF48450019001200290FF
:102EC000002003900220049001A91448FEF75AFA4A
:102ED0004FF4414001900120029000200390022015
:102EE000049001A90E48FEF74DFA4FF400700190CE
:102EF00001200290002003900220049001A90848BC
:102F0000FEF740FA002205211720FEF791FC17205A
:102F1000FEF77EFC05B000BD001002400008014035
:102F2000000C014000B591B000200F9010901C21C2
:102F300008A8FDF734FA20216846FDF730FA30483A
:102F4000304908604720486000212E48816044F6DF
:102F50001F61C1600021016141618161FFF711FCC6
:102F600008B1FDF7A5FB00200F9010900FA9254890
:102F7000FFF79AF908B1FDF79BFB602008904FF42A
:102F8000FA60099000200A900B900C900D900E9022
:102F9000002208A91B48FFF776FB08B1FDF788FB64
:102FA000042208A91748FFF76EFB08B1FDF780FB64
:102FB000082208A91348FFF766FB08B1FDF778FB64
:102FC0000C2208A90F48FFF75EFB08B1FDF770FB64
:102FD0000020009001900290039004904FF4005064
:102FE00005900020079069460648FFF723F908B1CD
:102FF000FDF75EFB0348FFF7D5FA11B000BD0000F6
:10300000002C01409801002000B589B000200790F5
:1030100008901C216846FDF7C2F94FF08040244912
:1030200008604720486000212148816044F61F6104
:10303000C160002101618161FFF7A3FB08B1FDF7C9
:1030400037FB00200790089007A91948FFF72CF9D3
:1030500008B1FDF72DFB602000904FF4FA6001905D
:10306000002002900490002269461148FFF70BFBF4
:1030700008B1FDF71DFB042269460D48FFF703FB6D
:1030800008B1FDF715FB082269460948FFF7FBFA6E
:1030900008B1FDF70DFB0C2269460548FFF7F3FA6E
:1030A00008B1FDF705FB0248FFF77CFA09B000BD47
:1030B000E001002010B50C480C4908600C4848603D
:1030C0004FF48051094881600021C1604FF4806154
:1030D00001610C21416100218161C161FFF750FD57
:1030E00008B1FDF7E5FA10BD0038014028020020C4
:1030F000A086010000BFFEE700BFFEE72DE9F0411A
:103100003A4C32E0207C78B3204600F0C7F8207AB1
:1031100030B1042808D008280AD00C2810D10BE0C0
:1031200020680068456B0BE020680068856B07E04D
:1031300020680068C56B03E020680068056C00BF6C
:1031400000BF4FF4C870606021680968C96A481CF4
:1031500003F0CCFF0646284603F0C8FF0746314679
:1031600003F0CAFEE06000BF1434214800688442C6
:10317000C8D1204C32E0207C78B3204600F08EF895
:10318000207A30B1042808D008280AD00C2810D1A1
:103190000BE020680068456B0BE020680068856BD9
:1031A00007E020680068C56B03E020680068056CD4
:1031B00000BF00BF4FF4C870606021680968C96A29
:1031C000481C03F093FF0646284603F08FFF07468E
:1031D000314603F091FEE06000BF143406480068F9
:1031E0008442C8D10020BDE8F08100009800002092
:1031F00060010020FC000020640100202DE9F04166
:1032000004460D460021284603F084FF05D34FF005
:103210007E51284604F07EF802D20120BDE8F081FC
:10322000E56021680968C96A481C03F05FFF8046B1
:10323000294603F0A3FF074603F020FF0646314668
:10324000204600F011F80020E8E700000246054B98
:10325000B3FBF1F3581E13681B68D86200BF5160BE
:103260000020704740420F000246107A10B91068E3
:1032700000684163107A042802D1106800688163F5
:10328000107A082802D110680068C163107A0C28EF
:1032900002D11068006801640020704710B5044630
:1032A000217A2068FFF7CCFA10BD000010B500228B
:1032B0004FF480710148FEF7F5F910BD000C014094
:1032C00008B508490968C9084FF47A72B1FBF2F1F0
:1032D0004143009100BF00BF00994A1E009200299F
:1032E000F9D108BD10000020002400BF1348006879
:1032F000C06840F0100011490968C86028221049D0
:103300000E48FFF7EBFC00BF16E00E480068A04235
:1033100001D9012000E000200B4908770846007F12
:1033200028B1FEF7C5F90446054801F0A7FD64225F
:103330000021012000F038FFE7E70000280200200C
:10334000EC1B00208C000020CC1B002000BF0120C3
:1033500000F016FEFBE700001CB5DFF8D8A14FF027
:103360007E5001900146019803F058FD04467249D1
:1033700003F004FF0090504603F024FD0646FDF7DD
:103380002FF9044603F086F8804641466B48FFF764
:1033900035FF009803F016FD0646FDF721F90446B7
:1033A00003F078F88046414664481430FFF726FF62
:1033B00064216248FFF74AFF642160481430FFF738
:1033C00045FFB6E0DFF86CA14FF07E51019803F0A5
:1033D00025FD0446584903F0D1FE0090009803F003
:1033E000F1FC0646FDF7FCF8044603F053F880466E
:1033F000414652481430FFF701FF504603F0E2FC0B
:103400000646FDF7EDF8044603F044F880464146D1
:103410004A48FFF7F3FE4A49C86803F0D3FC044664
:103420000022484B03F0AEFB3CD24FF07E590A24F9
:103430002AE0484603F0C6FC0746434A434B03F0E4
:10344000D7FB054603F026F881464FF07E514846EB
:1034500003F0E4FC0546384903F090FE0090009824
:1034600003F0B0FC0746FDF7BBF8054603F012F881
:103470008346594631481430FFF7C0FE962C00DAD7
:103480000A34204600F02EFD484603F09BFC05461A
:103490002F4A304B03F076FBCBD34FF4FA7000F099
:1034A00021FD00BF2649886803F08CFC04460022F9
:1034B000244B03F067FB3CD2DFF89C900A2429E000
:1034C000484603F07FFC07461F4A204B03F014F8E0
:1034D000054602F0DFFF81464FF07E51484603F07B
:1034E0009DFC0546144903F049FE8246504603F010
:1034F00069FC0746FDF774F8054602F0CBFF8346EA
:1035000059460E48FFF77AFE642C00DA641D204607
:1035100000F0E8FC484603F055FC05464FF0333216
:103520000E4B03F0F5F9CBD34FF4FA6000F0DAFC60
:1035300000BF47E70000F041000048433801002089
:10354000CC1B00200000E83F9A9999999999B93FBE
:10355000D7A3703D0AD7EFBF9A9959BF3333C33F02
:1035600010B500BF502080F31188BFF34F8FBFF319
:103570006F8F00BF02F0FEFC18B14FF0805004497D
:10358000086000BF002080F3118800BF10BD00005C
:1035900004ED00E000B593B0282109A8FCF7FFFE78
:1035A000142104A8FCF7FBFE00200090019002907B
:1035B00003900120099000040A9000200B90012044
:1035C0000D9002201090C10311914FF4E01112915F
:1035D00009A8FEF7FBFB08B1FDF76AF80F2004907D
:1035E00002200590002006904FF480600790002094
:1035F0000890022104A8FEF791FA08B1FDF758F8E7
:1036000002200090800302906846FEF7EFF908B1AF
:10361000FDF74EF813B000BD7047000010B502482A
:10362000FEF7F5FE10BD0000B002002010B50268E4
:10363000184B984208D0B0F1804F05D0164B9842F5
:1036400002D0164B984203D122F070024B681A4305
:10365000104B984208D0B0F1804F05D00E4B9842E5
:1036600002D00E4B984203D122F44072CB681A4329
:1036700022F080034C6943EA040202608B68C36253
:103680000B688362034B984201D10B6903630123EA
:10369000436110BD002C01400004004000080040C0
:1036A00030B501F01F05012404FA05F3046A9C43B8
:1036B0000462046A01F01F0502FA05F52C43046256
:1036C00030BD000030B5056A25F001050562026ACB
:1036D0004368846924F0700424F003040D682C43CB
:1036E00022F002028D682A430D4DA84206D100BF88
:1036F00022F00802CD682A4322F00402084DA842B5
:1037000007D123F4807323F400734D692B438D6933
:103710002B43436084614D684563026230BD000005
:10372000002C014030B5056A25F010050562026ADB
:103730004368846924F4E04424F440740D6844EA46
:10374000052422F020028D6842EA05120E4DA8429F
:1037500007D100BF22F08002CD6842EA051222F0B4
:103760004002094DA84209D123F4806323F4006389
:103770004D6943EA85038D6943EA850343608461AB
:103780004D688563026230BD002C014030B5056A8A
:1037900025F480750562026A4368C46924F07004E8
:1037A00024F003040D682C4322F400728D6842EA71
:1037B00005220F4DA84207D100BF22F40062CD6858
:1037C00042EA052222F48062094DA84209D123F47D
:1037D000805323F400534D6943EA05138D6943EA8E
:1037E00005134360C4614D68C563026230BD0000CB
:1037F000002C014030B5056A25F480550562036A46
:103800004468C26922F4E04222F440720D6842EA40
:10381000052223F400538D6843EA0533064DA84280
:1038200004D124F480444D6944EA85144460C261A3
:103830004D680564036230BD002C014070B505463B
:103840006C6A0020E085E0842046FFF771F870BDC7
:1038500070B506460025746A20684069C0F3C0153B
:1038600094F83D00212805D125B10020E0842046B0
:1038700000F085F820684069C0F3801594F83E0098
:10388000222805D125B10020E085204600F04CF823
:10389000206C40F0100020642046FFF749F870BD0E
:1038A00070B505466C6A2868006800F02000F8B919
:1038B0000020E0852068C06820F480702168C8601E
:1038C0002068406920F00100216848612068406953
:1038D00020F0400021684861202084F83E00206BE1
:1038E000012805D12068C06820F010002168C86058
:1038F000206B012804D1A18D2046FFF718F802E0C3
:103900002046FFF70CFA70BD70B505466C6A206B57
:10391000012805D1A08D41082046FFF708F802E0F4
:103920002046FFF7FDF970BD0168C96821F4907168
:103930000268D1600168496921F0010102685161A2
:10394000016B012905D10168C96821F010010268E5
:10395000D160202180F83E1000210163704710B52E
:1039600004462068C06820F040002168C86020201C
:1039700084F83D002046FFF7D4F9002010BD01680F
:10398000C96821F0C0010268D160202180F83D1093
:103990007047F8B5044694F83E00222869D1A06823
:1039A000B0F5805F0CD1206950B90025A66A206867
:1039B0004068C0F308003080A06A801CA06215E057
:1039C000A56A0026A068B0F5805F03D0A06828B97A
:1039D000206918B920684068287004E020684068B1
:1039E00000F07F002870A06A401CA062E08D401E9D
:1039F00080B2E085A8BB2068C06820F02000216864
:103A0000C8602068C06820F480702168C8602068A1
:103A1000406920F0010021684861202084F83E00C0
:103A2000206B01281ED1002020632068C06820F090
:103A300010002168C8602068006800F0100010289D
:103A40000AD100BF00200090206800680090206824
:103A50004068009000BF00BFA18D2046FEF767FFC1
:103A600003E004E02046FFF75AF90020F8BD0020EB
:103A7000FCE70220FAE7000070B5044621680969F6
:103A800021F44051E2681143226811612269A16862
:103A90001143626941EA02052168C96841F20C627A
:103AA000914329432268D1602168496921F440711A
:103AB000A2691143226851612D4A2168914202D1C5
:103AC000FEF72AF901E0FEF717F900EBC00101EB60
:103AD000001162689200B1FBF2F100EBC00202EB50
:103AE000001263689B00B2FBF3F26423B2FBF3F2B3
:103AF00002EBC20303EB0212A1EB8201322202EBC2
:103B000001116422B1FBF2F101F0F00100EBC002FF
:103B100002EB001263689B00B2FBF3F26423B2FB7A
:103B2000F3F201EB021200EBC00101EB001163683C
:103B30009B00B1FBF3F100EBC00303EB00136668DD
:103B4000B600B3FBF6F36426B3FBF6F303EBC30650
:103B500006EB0313A1EB8301322303EB0111642372
:103B6000B1FBF3F101F00F0111442268916070BDC7
:103B70000038014077B581B0044615460298A0622E
:103B8000A58500202064222084F83E001C48A16BFB
:103B900088621C48A16BC8621B48A16B08630020A7
:103BA000A16B486302AE32682368191D2B46A06BD7
:103BB000FDF776FB00BF00200090206800680090B1
:103BC00020684068009000BF00BF00BF002084F85C
:103BD0003C0000BF2068C06840F480702168C86065
:103BE0002068406940F00100216848612068406910
:103BF00040F0400021684861002004B070BD000022
:103C0000A13800080939000851380008014691F828
:103C10003D00212828D18868B0F5805F0BD1086964
:103C200048B90A6A1088C0F308000B685860086A2F
:103C3000801C086205E00B6A581C086218780B6843
:103C40005860C88C401E80B2C88458B90868C068E3
:103C500020F080000B68D8600868C06840F0400021
:103C60000B68D860002070470220FCE708B529489F
:103C7000006800F01000002847D026480C3000688B
:103C80001021084080B200283FD000BF00200090E3
:103C90002048006800901F48001D0068009000BF89
:103CA00000BF00BF1B481430006820F040001949D5
:103CB000143108601848806D20F0010016498865AD
:103CC00000BF0846C06D162805D1FDF7F1FC134969
:103CD000086000F04BF900BF28200F49C865104864
:103CE00048660846406840F4702048600846806D89
:103CF00040F00100886507481430006840F040003B
:103D000004491431086000BF08BD0648FEF712FEE2
:103D100000BFF9E700380140000002408C0000209D
:103D2000EC1B00202802002000BFFEE708B5802021
:103D3000182300220A4900900AA000F099F94020B7
:103D4000182300220949009009A000F091F94020B1
:103D5000182300220849009008A000F089F908BD46
:103D6000B90600086578616D706C6500593300080C
:103D70007374656572000000292D00086C696E651A
:103D800077616C6B0000000002480068C0F30220FD
:103D9000704700000CED00E010B5002804DB0A07B6
:103DA000130E054A135406E00A07140E034A00F0E6
:103DB0000F031B1FD45410BD00E400E018ED00E019
:103DC000EFF311807047EFF305807047EFF3108039
:103DD0007047000025E00021124800F025F801217D
:103DE000104800F021F802210E4800F01DF80321D0
:103DF0000C4800F019F805210A4800F015F84FF0BA
:103E0000020400BFEFF3058018B900F0D5F80228CE
:103E100003D02046FDF792FA02E0204600F0B0F809
:103E200000BFD8E7680100202DE9F84F06460C4690
:103E30002148046001202049486000208860002556
:103E40001E4800EBC40047683046FCF7BDFD08B1D2
:103E5000FCF72EFC3046FDF705F80A213046FCF74A
:103E600041FF3046FCF760FE85B2284603F03EF97C
:103E7000834639464FF07E5003F07EFA5946009053
:103E800003F07CF981460D4931F8340003F02EF936
:103E90008346394603F072F98246494602F0BEFF76
:103EA000804603F0EBF8054901EBC4014880034864
:103EB00020F83450BDE8F88F08420020D841002097
:103EC00070B504460D4685F000463046216803F083
:103ED00021F906D22946206803F01CF901D20020FE
:103EE000206070BD10B5044600BFEFF3058018B91F
:103EF00000F062F8022803D02046FDF71FFA02E026
:103F0000204600F03DF810BD10B5044600BFEFF3A9
:103F1000058018B900F050F8022803D02046FDF7BC
:103F20000DFA02E0204600F02BF810BDFDF7D2FBA1
:103F3000FFF730FBFEF778FFFEF74AFFFEF71AFFA8
:103F4000FEF7F0FFFFF760F8FFF7B4F8FCF76CFB43
:103F50000548FCF7ADFC00F049F8FEF753FF00F010
:103F600065F800BFFEE700006801002010B50121E0
:103F70000248006800F0CCF810BD0000900000205E
:103F800070B50546FFF71FFF48B9FFF71FFF30B9AF
:103F900008480068022805D1FFF712FF10B16FF042
:103FA000050404E0002415B1284601F075F9204607
:103FB00070BD00006400002010B501F0C5FF28B1FD
:103FC000012806D0022803D102240AE0032408E0D5
:103FD00000BF05480068012801D1012400E0002449
:103FE00000BF00BF204610BD6400002010B5FFF7E1
:103FF000EAFE48B9FFF7EAFE30B90B48006802282C
:1040000005D1FFF7DDFE10B16FF0050409E00648A9
:10401000006820B9012004490860002401E04FF045
:10402000FF34204610BD00006400002010B5FFF7EB
:10403000CAFE48B9FFF7CAFE30B90C48006802282A
:1040400005D1FFF7BDFE10B16FF005040CE0074885
:104050000068012806D102200449086001F098F99F
:10406000002401E04FF0FF34204610BD6400002022
:104070002DE9F0418AB004460D4617469846109E39
:1040800004B11DB900200AB0BDE8F0811B480088CA
:104090003044B0F5006F01D900BFFEE71848007842
:1040A0000F2801D100BFFEE72422164901A8FCF722
:1040B0003CF9019412480078C0EBC00101EB0010FC
:1040C000114901EB8000039010480C49098800EB6E
:1040D00081000590B0000690CDF81C80074800884C
:1040E00030440649088006480078401C044908709E
:1040F00001AA3946284600F0BDF8C4E79400002024
:1041000096000020A0740008143C0020141C00201D
:10411000FEB504460D46264616B105F0004018B11E
:104120006FF00300029038E04FF0FF300290FFF78D
:104130004AFE48B9FFF74AFE30B91948006802281C
:104140001FD1FFF73DFEE0B10020019001A8002340
:10415000012229460090304601F056FE002002ABB5
:10416000024601460090304601F04EFE0198A0B193
:104170004FF080500B490860BFF34F8FBFF36F8F34
:104180000BE0002301222946304601F0BDFD02ABC1
:1041900000221146304601F0B7FD0298FEBD000036
:1041A0006400002004ED00E02DE9FC5F054689462F
:1041B0001646FFF708FE48B9FFF708FE30B92C484D
:1041C0000068022805D1FFF7FBFD10B16FF0050470
:1041D0004AE005F0004010B16FF0030444E009F03C
:1041E0000200022802D14FF0000A00E0AA46002493
:1041F000374601F0B9FE009000BF3B4601AA514688
:10420000002001F059FF8046B8F1010F22D12C4067
:104210000198044309F0010040B105EA0400A842F6
:1042200000D120E056B96FF002041CE005EA04005A
:1042300000B118E016B96FF0020414E001F094FE2A
:104240000099A0EB010BBB4501D9002708E0A7EBC3
:104250000B0705E016B96FF0020401E06FF00104EE
:10426000B8F1000FC9D100BF2046BDE8FC9F000097
:10427000640000202DE9F04786B080468946144648
:1042800000200490FFF79FFD00285DD1FFF79EFD01
:10429000002859D12D480068022803D1FFF790FD6E
:1042A000002851D1B8F1000F4ED0802618250020EB
:1042B00005900DF1140A471E44B3206808B1D4F8E4
:1042C00000A0A06900B1A5692DB1382D03D82079CF
:1042D00000F0010018B1002006B0BDE8F087606969
:1042E00008B160698608A06840B1E0685C2805D321
:1042F000206918B1606908B1012708E0A06830B9E9
:10430000E06820B9206910B9002700E00027012FDC
:104310000CD12169A0684B463246CDE9005102908C
:104320005146404601F094FC04900DE067B904A8A2
:10433000B2B24B465146CDE90050404601F056FC22
:10434000012801D0002004900498C5E764000020F3
:104350002DE9F04105460E461648076816480068E4
:10436000001D00F019FE681C38B936B1124801680A
:10437000091D124800F066FE1AE07C190E4800681C
:104380004460BC4207D20C480168091D0C48006813
:1043900000F03EFE0CE008480168091D094800686D
:1043A00000F036FE08480068844201D206480460E6
:1043B000BDE8F0812800002014000020E80700205C
:1043C0001C000020180000204400002010B5044606
:1043D00000F044FE24480068401C2349086023483C
:1043E000006840B9214804600846006801280DD1E2
:1043F00000F0F8F90AE01E48006838B91B48006868
:10440000C06AE16A884201D8184804601948006807
:10441000401C184908600846006860641649E06A54
:104420000968884202D91449E06A0860E16A01EB30
:104430008101124A02EB8100211D00F003FE00F011
:1044400037FE0B48006868B108480068C06AE16A36
:10445000884207D24FF0805009490860BFF34F8F60
:10446000BFF36F8F10BD0000240000201400002057
:1044700030000020400000202C00002038030020E5
:1044800004ED00E008B500F0E9FD12480068E8B965
:10449000114800F0ADFD114800F0AAFD0E4810498A
:1044A00008600E480F49086000200F4B0F4A10218A
:1044B00000900A2001F094F8064908600846006858
:1044C00020B10BA10348006800F0AAFE00F0F0FD47
:1044D00008BD000058000020FC0700201008002044
:1044E0005000002054000020240800207408002000
:1044F000546D72510000000010B516E000F0AEFDE2
:104500000C48C068C468201D00F046FD0A480068D9
:10451000401E0949086009480068401E07490860B4
:1045200000F0C6FD204600F05EF804480068002850
:10453000E4D110BDD407002024000020200000207A
:1045400070B504460D46206C70B1216CE0680844DB
:10455000E0606168E068884201D32068E060284636
:10456000226CE168FBF79CFE70BD2DE9F04104462A
:104570000F4615464FF00008A66B206C40B9206826
:1045800060BB606801F0E8FD80460020606025E0C7
:104590007DB93946226CA068FBF782FE216CA068C9
:1045A0000844A060D4E90110884217D32068A060B5
:1045B00014E03946226CE068FBF772FE216CE0687B
:1045C000401AE0602168E068884203D2216C60688C
:1045D000401AE060022D01D106B1761E701CA06366
:1045E0004046BDE8F08110B5044694F8590030B952
:1045F000206B00F07BFD204600F078FD1AE094F877
:104600005900012803D1204600F070FD12E094F813
:104610005900022801D1012000E0002050B900BF5C
:10462000502080F31188BFF34F8FBFF36F8F00BF0F
:1046300000BFFEE710BD00000146084A126812687C
:104640000AB9012200E000220A600A6822B9034A7E
:104650001268D268106800E0002070475000002007
:1046600030B54FF44063174800F007042CB1C01D6B
:1046700020F00700134C041B1B1B0246124C226047
:104680000024114D6C60D018083820F007000F4C42
:10469000206000240D4D2D686C600C4D2D682C6041
:1046A0001146441A4C60094C24680C60084D4C6853
:1046B0002C60084D4C682C604FF00044064D2C6077
:1046C00030BD0000CC0F00206800002070000020EA
:1046D00078000020740000207C00002000BFFFF75D
:1046E0000BFF064800680128F9D94FF080500449B3
:1046F0000860BFF34F8FBFF36F8FF0E738030020E0
:1047000004ED00E02DE9F04106460D4617469846B7
:10471000069C0DB9246000E02760E6632564012152
:10472000204600F0CDFF84F84C80BDE8F0812DE9F3
:10473000F05F82460F4690469B460A9E0C9C4FEACD
:104740008801A522206BFBF722FEA8F10100216B56
:1047500001EB800929F0070909F0070008B90120D9
:1047600000E0002050B900BF502080F31188BFF353
:104770004F8FBFF36F8F00BF00BFFEE7002507E03C
:10478000795D04F134004155785D00B902E06D1C9B
:10479000102DF5D300BF002143200155382E00D342
:1047A0003726E662E66400202065201D00F02DFC1F
:1047B00004F1180000F029FC2461C6F13800A06162
:1047C00064620020606584F858005A4651464846A5
:1047D00000F042FB20600B9808B10B980460BDE824
:1047E000F09F000010B5002407E004EB84010F4A9D
:1047F00002EB810000F0FCFB641C382CF5D30C4864
:1048000000F0F6FB0B4800F0F3FB0B4800F0F0FB68
:104810000A4800F0EDFB0A4800F0EAFB04480949A9
:10482000086004480849086010BD000038030020F3
:1048300098070020AC070020C0070020D407002004
:10484000E8070020180000201C00002010B50146D9
:10485000164800E0006803688B42FBD302464368B9
:1048600013448B4204D143684C682344436001469F
:104870000A464B6813440468A34211D10C4C0368E8
:104880002468A34208D04B680468646823444B60E2
:1048900003681B680B6005E0054B1B680B6001E0BB
:1048A00003680B60884200D0016010BD68000020E2
:1048B000700000202DE9F04104460D4616461F46C3
:1048C0004FF0000865602461B5420CD8F01BA16967
:1048D000884202D34FF0010811E0211D0948006809
:1048E00000F096FB0BE0BE4204D2BD4202D34FF073
:1048F000010804E0211D0448006800F089FB4046DF
:10490000BDE8F081540000205000002070B505463D
:1049100000F0A4FBA86B08B9012400E0002400F01B
:10492000C7FB204670BD70B5054600F097FBA86B2D
:10493000E96B884201D1012400E0002400F0B8FBBB
:10494000204670BDF8B505460F4616480068C06899
:10495000C468201D00F020FBE06901281DD1A0697A
:1049600041192B463A462046FFF7A4FFA8B1002084
:1049700003462A4601460090204601F049FD0646BE
:1049800056B900BF502080F31188BFF34F8FBFF39B
:104990006F8F00BF00BFFEE700BF2046616A8847F7
:1049A000F8BD000050000020F0B587B082E0039809
:1049B000002811DA04AE56B900BF502080F31188E8
:1049C000BFF34F8FBFF36F8F00BF00BFFEE7D6E985
:1049D0000020B168904700BF039800286ADB059C5F
:1049E000606908B9012000E0002010B9201D00F026
:1049F000D3FA02A800F0C0F8054603980A2857D257
:104A0000DFE800F009050731334F0608323400BFF4
:104A100000BF00BF00BF0498A269811803462A4660
:104A20002046FFF747FFE8B12046616A8847E06902
:104A3000012817D1002000900498A1694218002392
:104A40001946204601F0E4FC074657B900BF502044
:104A500080F31188BFF34F8FBFF36F8F00BF00BF8C
:104A6000FEE700BF25E000BF23E000BF0498A0617F
:104A7000A06908B1012000E0002050B900BF50201B
:104A800080F31188BFF34F8FBFF36F8F00BF00BF5C
:104A9000FEE7A06941192B462A462046FFF70AFF88
:104AA00007E094F82C0010B9204600F01FFB00E04E
:104AB00000BF00BF002203A90448006800F09CFF6B
:104AC00000287FF474AF07B0F0BD0000580000204C
:104AD000F8B505460C4600F0B7FC684600F04CF807
:104AE0000646009820BB44B9B54206D801F0D2FB77
:104AF00031462846FFF726FF1CE03CB10E4800680F
:104B0000006808B9012000E000200446A91B2246E5
:104B10000A48006800F09AFB01F0BCFB50B94FF066
:104B2000805007490860BFF34F8FBFF36F8F01E0DC
:104B300001F0B0FBF8BD0000540000205800002038
:104B400004ED00E00A490968096809B9012100E09B
:104B5000002121B14FF0FF31064A116006E00449FF
:104B60000968C968C868034A416811607047000055
:104B7000180000204400002070B5044601F0F4F94C
:104B8000054607480068854204D200F00BF8012072
:104B9000206001E00020206001480560284670BDCB
:104BA000600000202DE9F84332E024480068C06826
:104BB000056822480068C068C468201D00F0ECF950
:104BC0002046616A8847E069012821D1A069461919
:104BD000AE4207D966602461211D1848006800F0C4
:104BE00017FA15E0002003462A46014600902046A9
:104BF00001F00EFC074657B900BF502080F3118822
:104C0000BFF34F8FBFF36F8F00BF00BFFEE700BF42
:104C10000A480068006808B9012000E00020002868
:104C2000C3D00648D0F800800548006803490860F2
:104C30000348C0F80080BDE8F88300005000002061
:104C4000540000200E480068401C08B9012000E014
:104C5000002050B900BF502080F31188BFF34F8F60
:104C6000BFF36F8F00BF00BFFEE700BF502080F38F
:104C70001188BFF34F8FBFF36F8F00BF00BFFEE7F8
:104C80008000002008B500BF6846FFF7D5FC044649
:104C900020460099FFF71CFFFFF786FEF4E770B58A
:104CA000044600F0DBF994F9455010E0606A08B959
:104CB000012000E0002038B904F1240001F09EFA40
:104CC00018B100F023FB00E003E0681E45B2002DA0
:104CD000ECDC00BFFF2084F8450000F0E9F900F0AB
:104CE000BDF994F9445010E0206908B9012000E0B2
:104CF000002048B904F1100001F080FA08B100F07A
:104D000005FB681E45B200E001E0002DECDC00BFB1
:104D1000FF2084F8440000F0CBF970BD2DE9F0418C
:104D200004464FF0000800F08FFB4648006808B9C1
:104D3000FFF796FC44480068204000286BD1D4B1AE
:104D4000083404F00700B0B104F00700C0F1080017
:104D5000044404F0070008B9012000E0002050B925
:104D600000BF502080F31188BFF34F8FBFF36F8FC8
:104D700000BF00BFFEE7002C4DD0344800688442DD
:104D800049D8334E3046056801E02E462D686868E4
:104D9000A04202D228680028F7D12A48006885423C
:104DA00039D0306800F10808286830606868001B56
:104DB000102819D92F1907F0070008B9012000E0C1
:104DC000002050B900BF502080F31188BFF34F8FEF
:104DD000BFF36F8F00BF00BFFEE76868001B7860FD
:104DE0006C603846FFF732FD184968680968081A90
:104DF000164908600846006816490968884203D2C7
:104E000012480068134908600F4968680968084338
:104E100068600020286001F03DFA08F0070008B93A
:104E2000012000E0002050B900BF502080F311881D
:104E3000BFF34F8FBFF36F8F00BF00BFFEE7404649
:104E4000BDE8F081700000207C000020740000208C
:104E50006800002078000020001F4FF0807303607E
:104E6000001F21F001030360001F034B036014388F
:104E70000260203870470000454C000870B50446B9
:104E80002178627841EA0221C1F30A01A1F580602C
:104E900002F014F905463D4902F02EF83C4908603D
:104EA0006178C910A27841EA4211C1F30A01A1F563
:104EB000806002F003F90546344902F01DF83449D8
:104EC0004860A1788911E27841EA8201227941EAB9
:104ED0008221C1F30A01A1F5806002F0EFF80546D6
:104EE0002A4902F009F82A49886021794910627933
:104EF00041EAC211C1F30A01A1F5806002F0DEF8B7
:104F00000546224901F0F8FF2149C860214920489F
:104F1000FEF7D6FF1F491E48001DFEF7D1FF1D49B1
:104F20001B480830FEF7CCFF1A4919480C30FEF731
:104F3000C7FF60798009164988766079C0F301114E
:104F40001348C176A079E17940EA012000B2104906
:104F50000882207A617A40EA012001B20C4841823D
:104F6000A07AE17A40EA012001B209488182217BDE
:104F70008175617BC175A07BE17B40EA012004491A
:104F80000883207C4877607C887770BD00002544CA
:104F9000CC1B0020CDCC4C3D01460A69D1E9013043
:104FA0009860D1E9010358605068884201D188684F
:104FB0005060002008611068401E10601068704743
:104FC000034B0360034B0B608023136070470000AA
:104FD0001409002070090020034B0360034B0B6091
:104FE0004FF4807313607047700B0020CC0B0020CF
:104FF00000F1080141604FF0FF31816000F10801CC
:10500000C1600161002101607047002101617047AA
:1050100010B502460B685C1C0CB9106907E002F180
:10502000080000E04068446824689C42FAD944685B
:105030004C604C68A160886041600A611468641C1F
:10504000146010BD42684A6093688B609368596031
:105050009160086103685B1C0360704700BF5020CB
:1050600080F31188BFF34F8FBFF36F8F00BF0E48DF
:105070000068401C0C49086008460068012812D1ED
:105080000A480068C0B208B9012000E0002050B909
:1050900000BF502080F31188BFF34F8FBFF36F8F95
:1050A00000BF00BFFEE770478000002004ED00E075
:1050B0000D48006850B900BF502080F31188BFF33D
:1050C0004F8FBFF36F8F00BF00BFFEE70648006839
:1050D000401E054908600846006820B9002080F39A
:1050E000118800BF00BF70478000002070B50646E1
:1050F0003546002E3FD0083D2C461F4960680968A0
:10510000084008B1012000E0002050B900BF502045
:1051100080F31188BFF34F8FBFF36F8F00BF00BFC5
:10512000FEE7206808B9012000E0002050B900BF68
:10513000502080F31188BFF34F8FBFF36F8F00BFF4
:1051400000BFFEE70C4960680968084098B1206814
:1051500088B90949606809688843606000F074F99B
:105160000649606809680844044908602046FFF75A
:105170006DFB01F08FF870BD7C00002074000020F2
:1051800000204FF0E02108618861064800684FF474
:105190007A71B0FBF1F0401E4FF0E021486107202A
:1051A000086170471000002070B5FBF755F8044601
:1051B000102C16D304F1E02090F8F0531548007835
:1051C000854201DB012000E0002050B900BF5020E3
:1051D00080F31188BFF34F8FBFF36F8F00BF00BF05
:1051E000FEE70D48006800F4E0600C490968884259
:1051F00001D8012000E0002050B900BF502080F30A
:105200001188BFF34F8FBFF36F8F00BF00BFFEE762
:1052100070BD0000840000200CED00E0880000203C
:10522000024600200BE0084B53F8303033B9064BF0
:1052300043F8301003EBC0035A6002E0401C08281A
:10524000F1D300BF70470000F80200202DE9F041C3
:1052500005460E4617462C46FFF700FF94F944001A
:10526000401C10B9002084F8440094F94500401C0B
:1052700010B9002084F84500FFF71AFFA06B28B989
:105280003A46314604F1240000F062F82046FFF768
:1052900006FDBDE8F081000070B504460025D4B1DC
:1052A0001248006808B9012000E0002050B900BF92
:1052B000502080F31188BFF34F8FBFF36F8F00BF73
:1052C00000BFFEE700F0C0F800212046FFF740F8DD
:1052D00000F0E0FF05463DB94FF0805004490860FA
:1052E000BFF34F8FBFF36F8F70BD00004C000020E5
:1052F00004ED00E003490968016003490968416061
:10530000704700003C0000202800002001200149D7
:10531000086070473800002070B504460D4654B947
:1053200000BF502080F31188BFF34F8FBFF36F8F02
:1053300000BF00BFFEE70548016818312046FFF7AF
:1053400067FE01212846FFF703F870BD1400002016
:1053500070B505460E46144655B900BF502080F37F
:105360001188BFF34F8FBFF36F8F00BF00BFFEE701
:105370000648016818312846FFF764FE0CB14FF06B
:10538000FF3621463046FEF7E3FF70BD14000020D3
:1053900010B586B000200590049003AA04A905A8C2
:1053A000FFF70EFE0022DDE904101346CDE90021CF
:1053B00002901EA11F48039A00F04AFC1E49086093
:1053C0000846006808B1012400E00024012C02D145
:1053D00000F0E2FF0446012C15D100BF502080F3FD
:1053E0001188BFF34F8FBFF36F8F00BF4FF0FF30B7
:1053F0001249086001201249086000201149086024
:1054000000F072F810E0601C08B1012000E00020FC
:1054100050B900BF502080F31188BFF34F8FBFF306
:105420006F8F00BF00BFFEE706B010BD49444C457A
:1054300000000000DD460008480000204400002075
:10544000300000202800002002480068401C01496C
:10545000086070474C0000201E48006818B1012009
:105460001D49086034E000201B4908601B480168A2
:105470000CE051B900BF502080F31188BFF34F8F6B
:10548000BFF36F8F00BF00BFFEE7491E01EB810035
:10549000134A52F8200008B9012000E0002000283B
:1054A000E7D101EB81020E4B03EB820042685268A8
:1054B000426000F108024368934202D14268526898
:1054C00042604268D268074B1A600448016000BF1E
:1054D000704700004C000020380000202C00002005
:1054E00038030020140000201CB538490846007815
:1054F0000190FF200A4610700846007800909DF841
:10550000000000F0F0009DF80020904201D1012041
:1055100000E0002050B900BF502080F31188BFF395
:105520004F8FBFF36F8F00BF00BFFEE79DF80000F5
:1055300000F05000264A10700720264A106009E04B
:1055400024480068401E234A10609DF80000400671
:10555000000E00909DF8000000F080008028EFD041
:105560001C480068C0F10700042801D1012000E0B8
:10557000002050B900BF502080F31188BFF34F8F37
:10558000BFF36F8F00BF00BFFEE712480068000244
:10559000104A10601046008800F4E06010600B4A6A
:1055A000019810700C48006840F470000A490860C7
:1055B0000846006840F070400860FFF7E1FD0020F9
:1055C00006490860FAF712FE00201CBD00E400E066
:1055D000840000208800002020ED00E080000020F2
:1055E0002DE9F84380460E4617461D46DDF820900B
:1055F000B8F1000F01D0012000E0002050B900BF39
:10560000502080F31188BFF34F8FBFF36F8F00BF1F
:1056100000BFFEE70DB1012000E0002050B900BF3F
:10562000502080F31188BFF34F8FBFF36F8F00BFFF
:1056300000BFFEE707B10EB1012000E0002050B925
:1056400000BF502080F31188BFF34F8FBFF36F8FDF
:1056500000BF00BFFEE707B90EB9012000E000203F
:1056600050B900BF502080F31188BFF34F8FBFF3B4
:105670006F8F00BF00BFFEE75020009000985028B9
:1056800001D1012000E0002050B900BF502080F37C
:105690001188BFF34F8FBFF36F8F00BF00BFFEE7CE
:1056A0002C464CB1012084F846004B463A46314620
:1056B00040460094FFF726F82046BDE8F883000036
:1056C00070B505460E462C4654B900BF502080F3F5
:1056D0001188BFF34F8FBFF36F8F00BF00BFFEE78E
:1056E000FFF7BCFCD4E90F12206801FB02006060E8
:1056F0000020A0632068A060E06B401E226C21683F
:1057000000FB0210E060FF2084F8440084F84500AC
:105710009EB9206908B9012000E00020A8B904F171
:10572000100000F06BFD80B14FF080500949086017
:10573000BFF34F8FBFF36F8F07E004F11000FFF747
:1057400057FC04F12400FFF753FCFFF7B1FC0120E4
:1057500070BD000004ED00E02DE9FF4383B0064674
:1057600088461D464FF00009344654B900BF50200A
:1057700080F31188BFF34F8FBFF36F8F00BF00BF5F
:10578000FEE7B8F1000F01D1206C08B9012000E05C
:10579000002050B900BF502080F31188BFF34F8F15
:1057A000BFF36F8F00BF00BFFEE7022D02D1E06B99
:1057B000012801D1012000E0002050B900BF502095
:1057C00080F31188BFF34F8FBFF36F8F00BF00BF0F
:1057D000FEE700F0B9FB08B9059808B9012000E020
:1057E000002050B900BF502080F31188BFF34F8FC5
:1057F000BFF36F8F00BF00BFFEE700BFFFF72EFCB7
:10580000A06BE16B884201D3022D28D12A46414684
:105810002046FEF7AAFE0746606A08B9012000E0AC
:10582000002068B904F1240000F0E8FC88B14FF0D2
:10583000805032490860BFF34F8FBFF36F8F08E08D
:105840003FB14FF080502D490860BFF34F8FBFF339
:105850006F8FFFF72DFC012007B0BDE8F08305989E
:1058600018B9FFF725FC0020F6E7B9F1000F04D1C5
:1058700001A8FFF73FFD4FF00109FFF719FCFFF703
:10588000E3FDFFF7EBFB94F94400401C10B9002046
:1058900084F8440094F94500401C10B9002084F8B5
:1058A0004500FFF705FC05A901A800F059F9F0B97A
:1058B0002046FFF738F8A0B104F110000599FFF772
:1058C0002BFD2046FFF7EBF900F0E4FC002895D112
:1058D0004FF0805009490860BFF34F8FBFF36F8FBF
:1058E0008CE72046FFF7DBF900F0D4FC86E7204682
:1058F000FFF7D5F900F0CEFC0020ADE704ED00E0A5
:105900002DE9F05F07468A4690461E463C4654B94C
:1059100000BF502080F31188BFF34F8FBFF36F8F0C
:1059200000BF00BFFEE7BAF1000F01D1206C08B93B
:10593000012000E0002050B900BF502080F3118802
:10594000BFF34F8FBFF36F8F00BF00BFFEE7022E84
:1059500002D1E06B012801D1012000E0002050B904
:1059600000BF502080F31188BFF34F8FBFF36F8FBC
:1059700000BF00BFFEE7FFF717FC00BF5021EFF3A9
:10598000118081F31188BFF34F8FBFF36F8F00BF7A
:105990000546A06BE16B884201D3022E23D194F916
:1059A00045B0324651462046FEF7DFFD0BF10100BF
:1059B00088B9606A08B9012000E0002080B904F1CC
:1059C000240000F01BFC58B1B8F1000F08D00120F2
:1059D000C8F8000004E00BF1010040B284F8450073
:1059E0004FF0010901E04FF0000900BF85F3118875
:1059F00000BF4846BDE8F09F2DE9F74183B005465A
:105A00000E464FF000082C4654B900BF502080F3DA
:105A10001188BFF34F8FBFF36F8F00BF00BFFEE74A
:105A20000EB9206C08B9012000E0002050B900BF79
:105A3000502080F31188BFF34F8FBFF36F8F00BFEB
:105A400000BFFEE700F080FA08B9059808B9012008
:105A500000E0002050B900BF502080F31188BFF350
:105A60004F8FBFF36F8F00BF00BFFEE700BFFFF790
:105A7000F5FAA76BF7B131462046FEF761FD781EB7
:105A8000A063206908B9012000E0002060B904F19A
:105A9000100000F0B3FB38B14FF080502F49086080
:105AA000BFF34F8FBFF36F8FFFF702FB012006B0EC
:105AB000BDE8F081059818B9FFF7FAFA0020F6E77B
:105AC000B8F1000F04D101A8FFF714FC4FF0010852
:105AD000FFF7EEFAFFF7B8FCFFF7C0FA94F94400BD
